{
  "contractName": "VirtualMiningBoard",
  "abi": [
    {
      "constant": true,
      "inputs": [
        {
          "name": "_id",
          "type": "uint256"
        }
      ],
      "name": "name",
      "outputs": [
        {
          "name": "",
          "type": "string"
        }
      ],
      "payable": false,
      "stateMutability": "view",
      "type": "function"
    },
    {
      "constant": true,
      "inputs": [],
      "name": "name",
      "outputs": [
        {
          "name": "",
          "type": "string"
        }
      ],
      "payable": false,
      "stateMutability": "view",
      "type": "function"
    },
    {
      "constant": true,
      "inputs": [
        {
          "name": "_tokenId",
          "type": "uint256"
        }
      ],
      "name": "getApproved",
      "outputs": [
        {
          "name": "",
          "type": "address"
        }
      ],
      "payable": false,
      "stateMutability": "view",
      "type": "function"
    },
    {
      "constant": false,
      "inputs": [
        {
          "name": "_to",
          "type": "address"
        },
        {
          "name": "_tokenId",
          "type": "uint256"
        }
      ],
      "name": "approve",
      "outputs": [],
      "payable": false,
      "stateMutability": "nonpayable",
      "type": "function"
    },
    {
      "constant": true,
      "inputs": [
        {
          "name": "_id",
          "type": "uint256"
        }
      ],
      "name": "childArtifacts",
      "outputs": [
        {
          "name": "",
          "type": "uint256[]"
        }
      ],
      "payable": false,
      "stateMutability": "view",
      "type": "function"
    },
    {
      "constant": true,
      "inputs": [],
      "name": "totalSupply",
      "outputs": [
        {
          "name": "",
          "type": "uint256"
        }
      ],
      "payable": false,
      "stateMutability": "view",
      "type": "function"
    },
    {
      "constant": false,
      "inputs": [
        {
          "name": "_from",
          "type": "address"
        },
        {
          "name": "_to",
          "type": "address"
        },
        {
          "name": "_tokenId",
          "type": "uint256"
        }
      ],
      "name": "transferFrom",
      "outputs": [],
      "payable": false,
      "stateMutability": "nonpayable",
      "type": "function"
    },
    {
      "constant": true,
      "inputs": [
        {
          "name": "_owner",
          "type": "address"
        },
        {
          "name": "_index",
          "type": "uint256"
        }
      ],
      "name": "tokenOfOwnerByIndex",
      "outputs": [
        {
          "name": "",
          "type": "uint256"
        }
      ],
      "payable": false,
      "stateMutability": "view",
      "type": "function"
    },
    {
      "constant": true,
      "inputs": [],
      "name": "childArtifactAddress",
      "outputs": [
        {
          "name": "",
          "type": "address"
        }
      ],
      "payable": false,
      "stateMutability": "view",
      "type": "function"
    },
    {
      "constant": false,
      "inputs": [
        {
          "name": "_from",
          "type": "address"
        },
        {
          "name": "_to",
          "type": "address"
        },
        {
          "name": "_tokenId",
          "type": "uint256"
        }
      ],
      "name": "safeTransferFrom",
      "outputs": [],
      "payable": false,
      "stateMutability": "nonpayable",
      "type": "function"
    },
    {
      "constant": true,
      "inputs": [
        {
          "name": "_tokenId",
          "type": "uint256"
        }
      ],
      "name": "exists",
      "outputs": [
        {
          "name": "",
          "type": "bool"
        }
      ],
      "payable": false,
      "stateMutability": "view",
      "type": "function"
    },
    {
      "constant": true,
      "inputs": [
        {
          "name": "_index",
          "type": "uint256"
        }
      ],
      "name": "tokenByIndex",
      "outputs": [
        {
          "name": "",
          "type": "uint256"
        }
      ],
      "payable": false,
      "stateMutability": "view",
      "type": "function"
    },
    {
      "constant": true,
      "inputs": [
        {
          "name": "_id",
          "type": "uint256"
        }
      ],
      "name": "hasChildren",
      "outputs": [
        {
          "name": "",
          "type": "bool"
        }
      ],
      "payable": false,
      "stateMutability": "view",
      "type": "function"
    },
    {
      "constant": true,
      "inputs": [
        {
          "name": "_tokenId",
          "type": "uint256"
        }
      ],
      "name": "ownerOf",
      "outputs": [
        {
          "name": "",
          "type": "address"
        }
      ],
      "payable": false,
      "stateMutability": "view",
      "type": "function"
    },
    {
      "constant": false,
      "inputs": [
        {
          "name": "_boosterId",
          "type": "uint256"
        },
        {
          "name": "_children",
          "type": "uint256[]"
        }
      ],
      "name": "configureChildren",
      "outputs": [],
      "payable": false,
      "stateMutability": "nonpayable",
      "type": "function"
    },
    {
      "constant": true,
      "inputs": [
        {
          "name": "_owner",
          "type": "address"
        }
      ],
      "name": "balanceOf",
      "outputs": [
        {
          "name": "",
          "type": "uint256"
        }
      ],
      "payable": false,
      "stateMutability": "view",
      "type": "function"
    },
    {
      "constant": true,
      "inputs": [
        {
          "name": "_id",
          "type": "uint256"
        }
      ],
      "name": "mergedStats",
      "outputs": [
        {
          "name": "",
          "type": "string"
        },
        {
          "name": "",
          "type": "uint256[]"
        },
        {
          "name": "",
          "type": "uint256[]"
        }
      ],
      "payable": false,
      "stateMutability": "view",
      "type": "function"
    },
    {
      "constant": true,
      "inputs": [
        {
          "name": "num",
          "type": "uint256"
        }
      ],
      "name": "parseBigNum",
      "outputs": [
        {
          "name": "multiplier",
          "type": "uint256"
        },
        {
          "name": "exp",
          "type": "uint256"
        }
      ],
      "payable": false,
      "stateMutability": "pure",
      "type": "function"
    },
    {
      "constant": true,
      "inputs": [],
      "name": "owner",
      "outputs": [
        {
          "name": "",
          "type": "address"
        }
      ],
      "payable": false,
      "stateMutability": "view",
      "type": "function"
    },
    {
      "constant": true,
      "inputs": [],
      "name": "symbol",
      "outputs": [
        {
          "name": "",
          "type": "string"
        }
      ],
      "payable": false,
      "stateMutability": "view",
      "type": "function"
    },
    {
      "constant": false,
      "inputs": [
        {
          "name": "_to",
          "type": "address"
        },
        {
          "name": "_approved",
          "type": "bool"
        }
      ],
      "name": "setApprovalForAll",
      "outputs": [],
      "payable": false,
      "stateMutability": "nonpayable",
      "type": "function"
    },
    {
      "constant": false,
      "inputs": [
        {
          "name": "_to",
          "type": "address"
        },
        {
          "name": "_tokenId",
          "type": "uint256"
        }
      ],
      "name": "transfer",
      "outputs": [],
      "payable": false,
      "stateMutability": "nonpayable",
      "type": "function"
    },
    {
      "constant": false,
      "inputs": [
        {
          "name": "_from",
          "type": "address"
        },
        {
          "name": "_to",
          "type": "address"
        },
        {
          "name": "_tokenId",
          "type": "uint256"
        },
        {
          "name": "_data",
          "type": "bytes"
        }
      ],
      "name": "safeTransferFrom",
      "outputs": [],
      "payable": false,
      "stateMutability": "nonpayable",
      "type": "function"
    },
    {
      "constant": false,
      "inputs": [
        {
          "name": "_boosterId",
          "type": "uint256"
        }
      ],
      "name": "removeAllChildren",
      "outputs": [],
      "payable": false,
      "stateMutability": "nonpayable",
      "type": "function"
    },
    {
      "constant": false,
      "inputs": [
        {
          "name": "_boosterId",
          "type": "uint256"
        },
        {
          "name": "_index",
          "type": "uint256"
        }
      ],
      "name": "removeChildArtifact",
      "outputs": [],
      "payable": false,
      "stateMutability": "nonpayable",
      "type": "function"
    },
    {
      "constant": true,
      "inputs": [
        {
          "name": "_tokenId",
          "type": "uint256"
        }
      ],
      "name": "tokenURI",
      "outputs": [
        {
          "name": "",
          "type": "string"
        }
      ],
      "payable": false,
      "stateMutability": "view",
      "type": "function"
    },
    {
      "constant": true,
      "inputs": [
        {
          "name": "_id",
          "type": "uint256"
        },
        {
          "name": "_childArtifacts",
          "type": "uint256[]"
        }
      ],
      "name": "checkMerged",
      "outputs": [
        {
          "name": "statistics",
          "type": "uint256[]"
        }
      ],
      "payable": false,
      "stateMutability": "view",
      "type": "function"
    },
    {
      "constant": true,
      "inputs": [
        {
          "name": "num",
          "type": "uint256"
        }
      ],
      "name": "parseOp",
      "outputs": [
        {
          "name": "target",
          "type": "uint256"
        },
        {
          "name": "op",
          "type": "uint256"
        }
      ],
      "payable": false,
      "stateMutability": "pure",
      "type": "function"
    },
    {
      "constant": true,
      "inputs": [
        {
          "name": "_owner",
          "type": "address"
        },
        {
          "name": "_operator",
          "type": "address"
        }
      ],
      "name": "isApprovedForAll",
      "outputs": [
        {
          "name": "",
          "type": "bool"
        }
      ],
      "payable": false,
      "stateMutability": "view",
      "type": "function"
    },
    {
      "constant": true,
      "inputs": [
        {
          "name": "_id",
          "type": "uint256"
        }
      ],
      "name": "baseStats",
      "outputs": [
        {
          "name": "",
          "type": "string"
        },
        {
          "name": "",
          "type": "uint256[]"
        },
        {
          "name": "",
          "type": "uint256[]"
        }
      ],
      "payable": false,
      "stateMutability": "view",
      "type": "function"
    },
    {
      "constant": false,
      "inputs": [
        {
          "name": "_newOwner",
          "type": "address"
        }
      ],
      "name": "transferOwnership",
      "outputs": [],
      "payable": false,
      "stateMutability": "nonpayable",
      "type": "function"
    },
    {
      "inputs": [
        {
          "name": "_childArtifactAddress",
          "type": "address"
        },
        {
          "name": "_symbol",
          "type": "string"
        },
        {
          "name": "_name",
          "type": "string"
        }
      ],
      "payable": false,
      "stateMutability": "nonpayable",
      "type": "constructor"
    },
    {
      "anonymous": false,
      "inputs": [
        {
          "indexed": false,
          "name": "boosterId",
          "type": "uint256"
        },
        {
          "indexed": false,
          "name": "adjustedReward",
          "type": "uint256"
        }
      ],
      "name": "AdjustReward",
      "type": "event"
    },
    {
      "anonymous": false,
      "inputs": [
        {
          "indexed": false,
          "name": "boosterId",
          "type": "uint256"
        },
        {
          "indexed": false,
          "name": "difficulty",
          "type": "uint256"
        },
        {
          "indexed": false,
          "name": "adjustedDifficulty",
          "type": "uint256"
        }
      ],
      "name": "AdjustDifficulty",
      "type": "event"
    },
    {
      "anonymous": false,
      "inputs": [
        {
          "indexed": false,
          "name": "owner",
          "type": "address"
        },
        {
          "indexed": false,
          "name": "tokenId",
          "type": "uint256"
        },
        {
          "indexed": false,
          "name": "name",
          "type": "string"
        },
        {
          "indexed": false,
          "name": "statistics",
          "type": "uint256[]"
        }
      ],
      "name": "MintBaseArtifact",
      "type": "event"
    },
    {
      "anonymous": false,
      "inputs": [
        {
          "indexed": false,
          "name": "boosterId",
          "type": "uint256"
        },
        {
          "indexed": false,
          "name": "artifactId",
          "type": "uint256"
        }
      ],
      "name": "AddChildArtifact",
      "type": "event"
    },
    {
      "anonymous": false,
      "inputs": [
        {
          "indexed": false,
          "name": "boosterId",
          "type": "uint256"
        },
        {
          "indexed": false,
          "name": "artifactId",
          "type": "uint256"
        }
      ],
      "name": "RemoveChildArtifact",
      "type": "event"
    },
    {
      "anonymous": false,
      "inputs": [
        {
          "indexed": true,
          "name": "_from",
          "type": "address"
        },
        {
          "indexed": true,
          "name": "_to",
          "type": "address"
        }
      ],
      "name": "OwnershipTransferred",
      "type": "event"
    },
    {
      "anonymous": false,
      "inputs": [
        {
          "indexed": true,
          "name": "_from",
          "type": "address"
        },
        {
          "indexed": true,
          "name": "_to",
          "type": "address"
        },
        {
          "indexed": false,
          "name": "_tokenId",
          "type": "uint256"
        }
      ],
      "name": "Transfer",
      "type": "event"
    },
    {
      "anonymous": false,
      "inputs": [
        {
          "indexed": true,
          "name": "_owner",
          "type": "address"
        },
        {
          "indexed": true,
          "name": "_approved",
          "type": "address"
        },
        {
          "indexed": false,
          "name": "_tokenId",
          "type": "uint256"
        }
      ],
      "name": "Approval",
      "type": "event"
    },
    {
      "anonymous": false,
      "inputs": [
        {
          "indexed": true,
          "name": "_owner",
          "type": "address"
        },
        {
          "indexed": true,
          "name": "_operator",
          "type": "address"
        },
        {
          "indexed": false,
          "name": "_approved",
          "type": "bool"
        }
      ],
      "name": "ApprovalForAll",
      "type": "event"
    },
    {
      "constant": false,
      "inputs": [
        {
          "name": "_owner",
          "type": "address"
        },
        {
          "name": "_name",
          "type": "string"
        },
        {
          "name": "_statistics",
          "type": "uint256[]"
        },
        {
          "name": "_uriMetadata",
          "type": "string"
        }
      ],
      "name": "mint",
      "outputs": [
        {
          "name": "_boosterId",
          "type": "uint256"
        }
      ],
      "payable": false,
      "stateMutability": "nonpayable",
      "type": "function"
    },
    {
      "constant": false,
      "inputs": [
        {
          "name": "_boosterId",
          "type": "uint256"
        },
        {
          "name": "_artifactId",
          "type": "uint256"
        }
      ],
      "name": "addChildArtifact",
      "outputs": [],
      "payable": false,
      "stateMutability": "nonpayable",
      "type": "function"
    },
    {
      "constant": false,
      "inputs": [
        {
          "name": "_tokenId",
          "type": "uint256"
        },
        {
          "name": "_miningTarget",
          "type": "uint256"
        }
      ],
      "name": "adjustDifficulty",
      "outputs": [
        {
          "name": "adjustedMiningTarget",
          "type": "uint256"
        }
      ],
      "payable": false,
      "stateMutability": "nonpayable",
      "type": "function"
    },
    {
      "constant": false,
      "inputs": [
        {
          "name": "_tokenId",
          "type": "uint256"
        },
        {
          "name": "_miningReward",
          "type": "uint256"
        }
      ],
      "name": "adjustReward",
      "outputs": [
        {
          "name": "adjustedReward",
          "type": "uint256"
        }
      ],
      "payable": false,
      "stateMutability": "nonpayable",
      "type": "function"
    },
    {
      "constant": true,
      "inputs": [
        {
          "name": "_id",
          "type": "uint256"
        }
      ],
      "name": "experience",
      "outputs": [
        {
          "name": "",
          "type": "uint256"
        }
      ],
      "payable": false,
      "stateMutability": "view",
      "type": "function"
    },
    {
      "constant": true,
      "inputs": [
        {
          "name": "_id",
          "type": "uint256"
        }
      ],
      "name": "lifeDecrementer",
      "outputs": [
        {
          "name": "",
          "type": "uint256"
        }
      ],
      "payable": false,
      "stateMutability": "view",
      "type": "function"
    },
    {
      "constant": true,
      "inputs": [
        {
          "name": "_id",
          "type": "uint256"
        }
      ],
      "name": "executionCost",
      "outputs": [
        {
          "name": "",
          "type": "uint256"
        }
      ],
      "payable": false,
      "stateMutability": "view",
      "type": "function"
    },
    {
      "constant": true,
      "inputs": [
        {
          "name": "_id",
          "type": "uint256"
        }
      ],
      "name": "sockets",
      "outputs": [
        {
          "name": "",
          "type": "uint256"
        }
      ],
      "payable": false,
      "stateMutability": "view",
      "type": "function"
    },
    {
      "constant": true,
      "inputs": [
        {
          "name": "_id",
          "type": "uint256"
        }
      ],
      "name": "vHash",
      "outputs": [
        {
          "name": "",
          "type": "uint256"
        }
      ],
      "payable": false,
      "stateMutability": "view",
      "type": "function"
    },
    {
      "constant": true,
      "inputs": [
        {
          "name": "_id",
          "type": "uint256"
        }
      ],
      "name": "accuracy",
      "outputs": [
        {
          "name": "",
          "type": "uint256"
        }
      ],
      "payable": false,
      "stateMutability": "view",
      "type": "function"
    },
    {
      "constant": true,
      "inputs": [
        {
          "name": "_id",
          "type": "uint256"
        }
      ],
      "name": "level",
      "outputs": [
        {
          "name": "",
          "type": "uint256"
        }
      ],
      "payable": false,
      "stateMutability": "view",
      "type": "function"
    }
  ],
  "bytecode": "0x60806040527d040000000000000000000000000000000000000000000000000000000000600e557fffffffffffffffffffffffffffffffffffffffffffffffffffffffffffffffff600f553480156200005757600080fd5b50604051620055b0380380620055b083398101806040528101908080519060200190929190805182019291906020018051820192919050505082828281818160049080519060200190620000ad92919062000157565b508060059080519060200190620000c692919062000157565b50505033600b60006101000a81548173ffffffffffffffffffffffffffffffffffffffff021916908373ffffffffffffffffffffffffffffffffffffffff16021790555082600d60006101000a81548173ffffffffffffffffffffffffffffffffffffffff021916908373ffffffffffffffffffffffffffffffffffffffff16021790555050505050505062000206565b828054600181600116156101000203166002900490600052602060002090601f016020900481019282601f106200019a57805160ff1916838001178555620001cb565b82800160010185558215620001cb579182015b82811115620001ca578251825591602001919060010190620001ad565b5b509050620001da9190620001de565b5090565b6200020391905b80821115620001ff576000816000905550600101620001e5565b5090565b90565b61539a80620002166000396000f300608060405260043610610203576000357c0100000000000000000000000000000000000000000000000000000000900463ffffffff168062ad800c1461020857806305c58df2146102ae57806306fdde03146102ef578063081812fc1461037f578063095ea7b3146103ec57806311d8a69614610439578063157fa10f146104bb57806318160ddd146105e157806323b872dd1461060c5780632f745c59146106795780633455c25c146106da57806336d257d61461071157806342842e0e146107685780634f558e79146107d55780634f6ccce71461081a5780635906d5581461085b5780636352211e146108a05780636b9fd8131461090d57806370a082311461097d57806373706743146109d45780637accd3bc14610b0a5780638da5cb5b14610b52578063912ca8b414610ba95780639499cf6914610bf457806395d89b4114610c35578063978098fd14610cc5578063a22cb46514610d10578063a9059cbb14610d5f578063a9ac8ac414610dac578063b88d4fde14610ded578063c0194e7614610ea0578063c351815f14610ecd578063c4739f8914610f04578063c87b56dd14610f45578063ca739abc14610feb578063d3e971651461102c578063e36f5bad1461106d578063e564cdb814611132578063e60ddf211461117a578063e985e9c5146111bb578063ea13259114611236578063f2fde38b1461136c575b600080fd5b34801561021457600080fd5b50610233600480360381019080803590602001909291905050506113af565b6040518080602001828103825283818151815260200191508051906020019080838360005b83811015610273578082015181840152602081019050610258565b50505050905090810190601f1680156102a05780820380516001836020036101000a031916815260200191505b509250505060405180910390f35b3480156102ba57600080fd5b506102d960048036038101908080359060200190929190505050611467565b6040518082815260200191505060405180910390f35b3480156102fb57600080fd5b5061030461149f565b6040518080602001828103825283818151815260200191508051906020019080838360005b83811015610344578082015181840152602081019050610329565b50505050905090810190601f1680156103715780820380516001836020036101000a031916815260200191505b509250505060405180910390f35b34801561038b57600080fd5b506103aa60048036038101908080359060200190929190505050611541565b604051808273ffffffffffffffffffffffffffffffffffffffff1673ffffffffffffffffffffffffffffffffffffffff16815260200191505060405180910390f35b3480156103f857600080fd5b50610437600480360381019080803573ffffffffffffffffffffffffffffffffffffffff1690602001909291908035906020019092919050505061157e565b005b34801561044557600080fd5b5061046460048036038101908080359060200190929190505050611744565b6040518080602001828103825283818151815260200191508051906020019060200280838360005b838110156104a757808201518184015260208101905061048c565b505050509050019250505060405180910390f35b3480156104c757600080fd5b506105cb600480360381019080803573ffffffffffffffffffffffffffffffffffffffff169060200190929190803590602001908201803590602001908080601f016020809104026020016040519081016040528093929190818152602001838380828437820191505050505050919291929080359060200190820180359060200190808060200260200160405190810160405280939291908181526020018383602002808284378201915050505050509192919290803590602001908201803590602001908080601f01602080910402602001604051908101604052809392919081815260200183838082843782019150505050505091929192905050506117b2565b6040518082815260200191505060405180910390f35b3480156105ed57600080fd5b506105f661197b565b6040518082815260200191505060405180910390f35b34801561061857600080fd5b50610677600480360381019080803573ffffffffffffffffffffffffffffffffffffffff169060200190929190803573ffffffffffffffffffffffffffffffffffffffff16906020019092919080359060200190929190505050611988565b005b34801561068557600080fd5b506106c4600480360381019080803573ffffffffffffffffffffffffffffffffffffffff16906020019092919080359060200190929190505050611a9f565b6040518082815260200191505060405180910390f35b3480156106e657600080fd5b5061070f6004803603810190808035906020019092919080359060200190929190505050611b16565b005b34801561071d57600080fd5b50610726611d01565b604051808273ffffffffffffffffffffffffffffffffffffffff1673ffffffffffffffffffffffffffffffffffffffff16815260200191505060405180910390f35b34801561077457600080fd5b506107d3600480360381019080803573ffffffffffffffffffffffffffffffffffffffff169060200190929190803573ffffffffffffffffffffffffffffffffffffffff16906020019092919080359060200190929190505050611d27565b005b3480156107e157600080fd5b5061080060048036038101908080359060200190929190505050611d5f565b604051808215151515815260200191505060405180910390f35b34801561082657600080fd5b5061084560048036038101908080359060200190929190505050611dd0565b6040518082815260200191505060405180910390f35b34801561086757600080fd5b5061088660048036038101908080359060200190929190505050611e08565b604051808215151515815260200191505060405180910390f35b3480156108ac57600080fd5b506108cb60048036038101908080359060200190929190505050611e1d565b604051808273ffffffffffffffffffffffffffffffffffffffff1673ffffffffffffffffffffffffffffffffffffffff16815260200191505060405180910390f35b34801561091957600080fd5b5061097b6004803603810190808035906020019092919080359060200190820180359060200190808060200260200160405190810160405280939291908181526020018383602002808284378201915050505050509192919290505050611e9a565b005b34801561098957600080fd5b506109be600480360381019080803573ffffffffffffffffffffffffffffffffffffffff169060200190929190505050611fe3565b6040518082815260200191505060405180910390f35b3480156109e057600080fd5b506109ff60048036038101908080359060200190929190505050612067565b60405180806020018060200180602001848103845287818151815260200191508051906020019080838360005b83811015610a47578082015181840152602081019050610a2c565b50505050905090810190601f168015610a745780820380516001836020036101000a031916815260200191505b50848103835286818151815260200191508051906020019060200280838360005b83811015610ab0578082015181840152602081019050610a95565b50505050905001848103825285818151815260200191508051906020019060200280838360005b83811015610af2578082015181840152602081019050610ad7565b50505050905001965050505050505060405180910390f35b348015610b1657600080fd5b50610b35600480360381019080803590602001909291905050506121fb565b604051808381526020018281526020019250505060405180910390f35b348015610b5e57600080fd5b50610b67612236565b604051808273ffffffffffffffffffffffffffffffffffffffff1673ffffffffffffffffffffffffffffffffffffffff16815260200191505060405180910390f35b348015610bb557600080fd5b50610bde600480360381019080803590602001909291908035906020019092919050505061225c565b6040518082815260200191505060405180910390f35b348015610c0057600080fd5b50610c1f600480360381019080803590602001909291905050506122eb565b6040518082815260200191505060405180910390f35b348015610c4157600080fd5b50610c4a612323565b6040518080602001828103825283818151815260200191508051906020019080838360005b83811015610c8a578082015181840152602081019050610c6f565b50505050905090810190601f168015610cb75780820380516001836020036101000a031916815260200191505b509250505060405180910390f35b348015610cd157600080fd5b50610cfa60048036038101908080359060200190929190803590602001909291905050506123c5565b6040518082815260200191505060405180910390f35b348015610d1c57600080fd5b50610d5d600480360381019080803573ffffffffffffffffffffffffffffffffffffffff169060200190929190803515159060200190929190505050612646565b005b348015610d6b57600080fd5b50610daa600480360381019080803573ffffffffffffffffffffffffffffffffffffffff16906020019092919080359060200190929190505050612782565b005b348015610db857600080fd5b50610dd760048036038101908080359060200190929190505050612799565b6040518082815260200191505060405180910390f35b348015610df957600080fd5b50610e9e600480360381019080803573ffffffffffffffffffffffffffffffffffffffff169060200190929190803573ffffffffffffffffffffffffffffffffffffffff16906020019092919080359060200190929190803590602001908201803590602001908080601f01602080910402602001604051908101604052809392919081815260200183838082843782019150505050505091929192905050506127d1565b005b348015610eac57600080fd5b50610ecb60048036038101908080359060200190929190505050612810565b005b348015610ed957600080fd5b50610f026004803603810190808035906020019092919080359060200190929190505050612ae2565b005b348015610f1057600080fd5b50610f2f60048036038101908080359060200190929190505050612e35565b6040518082815260200191505060405180910390f35b348015610f5157600080fd5b50610f7060048036038101908080359060200190929190505050612e6d565b6040518080602001828103825283818151815260200191508051906020019080838360005b83811015610fb0578082015181840152602081019050610f95565b50505050905090810190601f168015610fdd5780820380516001836020036101000a031916815260200191505b509250505060405180910390f35b348015610ff757600080fd5b5061101660048036038101908080359060200190929190505050612f36565b6040518082815260200191505060405180910390f35b34801561103857600080fd5b5061105760048036038101908080359060200190929190505050612f6e565b6040518082815260200191505060405180910390f35b34801561107957600080fd5b506110db6004803603810190808035906020019092919080359060200190820180359060200190808060200260200160405190810160405280939291908181526020018383602002808284378201915050505050509192919290505050612fa6565b6040518080602001828103825283818151815260200191508051906020019060200280838360005b8381101561111e578082015181840152602081019050611103565b505050509050019250505060405180910390f35b34801561113e57600080fd5b5061115d6004803603810190808035906020019092919050505061305b565b604051808381526020018281526020019250505060405180910390f35b34801561118657600080fd5b506111a560048036038101908080359060200190929190505050613098565b6040518082815260200191505060405180910390f35b3480156111c757600080fd5b5061121c600480360381019080803573ffffffffffffffffffffffffffffffffffffffff169060200190929190803573ffffffffffffffffffffffffffffffffffffffff1690602001909291905050506130d0565b604051808215151515815260200191505060405180910390f35b34801561124257600080fd5b5061126160048036038101908080359060200190929190505050613164565b60405180806020018060200180602001848103845287818151815260200191508051906020019080838360005b838110156112a957808201518184015260208101905061128e565b50505050905090810190601f1680156112d65780820380516001836020036101000a031916815260200191505b50848103835286818151815260200191508051906020019060200280838360005b838110156113125780820151818401526020810190506112f7565b50505050905001848103825285818151815260200191508051906020019060200280838360005b83811015611354578082015181840152602081019050611339565b50505050905001965050505050505060405180910390f35b34801561137857600080fd5b506113ad600480360381019080803573ffffffffffffffffffffffffffffffffffffffff1690602001909291905050506132f8565b005b6060600c60008381526020019081526020016000206000018054600181600116156101000203166002900480601f01602080910402602001604051908101604052809291908181526020018280546001816001161561010002031660029004801561145b5780601f106114305761010080835404028352916020019161145b565b820191906000526020600020905b81548152906001019060200180831161143e57829003601f168201915b50505050509050919050565b6000600c6000838152602001908152602001600020600301600681548110151561148d57fe5b90600052602060002001549050919050565b606060048054600181600116156101000203166002900480601f0160208091040260200160405190810160405280929190818152602001828054600181600116156101000203166002900480156115375780601f1061150c57610100808354040283529160200191611537565b820191906000526020600020905b81548152906001019060200180831161151a57829003601f168201915b5050505050905090565b60006001600083815260200190815260200160002060009054906101000a900473ffffffffffffffffffffffffffffffffffffffff169050919050565b600061158982611e1d565b90508073ffffffffffffffffffffffffffffffffffffffff168373ffffffffffffffffffffffffffffffffffffffff16141515156115c657600080fd5b8073ffffffffffffffffffffffffffffffffffffffff163373ffffffffffffffffffffffffffffffffffffffff161480611606575061160581336130d0565b5b151561161157600080fd5b600073ffffffffffffffffffffffffffffffffffffffff1661163283611541565b73ffffffffffffffffffffffffffffffffffffffff161415806116825750600073ffffffffffffffffffffffffffffffffffffffff168373ffffffffffffffffffffffffffffffffffffffff1614155b1561173f57826001600084815260200190815260200160002060006101000a81548173ffffffffffffffffffffffffffffffffffffffff021916908373ffffffffffffffffffffffffffffffffffffffff1602179055508273ffffffffffffffffffffffffffffffffffffffff168173ffffffffffffffffffffffffffffffffffffffff167f8c5be1e5ebec7d5bd14f71427d1e84f3dd0314c0f7b2291e5b200ac8c7c3b925846040518082815260200191505060405180910390a35b505050565b6060600c60008381526020019081526020016000206001018054806020026020016040519081016040528092919081815260200182805480156117a657602002820191906000526020600020905b815481526020019060010190808311611792575b50505050509050919050565b6000600b60009054906101000a900473ffffffffffffffffffffffffffffffffffffffff1673ffffffffffffffffffffffffffffffffffffffff163373ffffffffffffffffffffffffffffffffffffffff1614151561189f576040517f08c379a00000000000000000000000000000000000000000000000000000000081526004018080602001828103825260328152602001807f53656e646572206973206e6f7420636f6e7472616374206f776e6572205b204f81526020017f776e65642e6f6e6c794f776e65722829205d000000000000000000000000000081525060400191505060405180910390fd5b6007835110151515611965576040517f08c379a000000000000000000000000000000000000000000000000000000000815260040180806020018281038252605b8152602001807f4d7573742062652061206d696e696d756d206f6620372073746174697374696381526020017f7320746f206d696e742061206e65772062617365206172746966616374205b2081526020017f5669727475616c4d696e696e67426f6172642e6d696e742829205d000000000081525060600191505060405180910390fd5b61197185858585613427565b9050949350505050565b6000600880549050905090565b8061199333826136d0565b151561199e57600080fd5b600073ffffffffffffffffffffffffffffffffffffffff168473ffffffffffffffffffffffffffffffffffffffff16141515156119da57600080fd5b600073ffffffffffffffffffffffffffffffffffffffff168373ffffffffffffffffffffffffffffffffffffffff1614151515611a1657600080fd5b611a208483613765565b611a2a84836138ce565b611a348383613ae6565b8273ffffffffffffffffffffffffffffffffffffffff168473ffffffffffffffffffffffffffffffffffffffff167fddf252ad1be2c89b69c2b068fc378daa952ba7f163c4a11628f55a4df523b3ef846040518082815260200191505060405180910390a350505050565b6000611aaa83611fe3565b82101515611ab757600080fd5b600660008473ffffffffffffffffffffffffffffffffffffffff1673ffffffffffffffffffffffffffffffffffffffff16815260200190815260200160002082815481101515611b0357fe5b9060005260206000200154905092915050565b813273ffffffffffffffffffffffffffffffffffffffff16611b3782611e1d565b73ffffffffffffffffffffffffffffffffffffffff16141515611c0e576040517f08c379a00000000000000000000000000000000000000000000000000000000081526004018080602001828103825260488152602001807f53656e646572206973206e6f7420746865206f776e6572206f6620746f6b656e81526020017f205b205669727475616c4d696e696e67426f6172642e6f6e6c79546f6b656e4f81526020017f776e65722829205d00000000000000000000000000000000000000000000000081525060600191505060405180910390fd5b611c1783613098565b600c600085815260200190815260200160002060010180549050101515611cf2576040517f08c379a00000000000000000000000000000000000000000000000000000000081526004018080602001828103825260578152602001807f4e6f7420656e6f75676820736f636b657420737061636520746f20616464206381526020017f68696c64206172746966616374205b205669727475616c4d696e696e67426f6181526020017f72642e6164644368696c6441727469666163742829205d00000000000000000081525060600191505060405180910390fd5b611cfc8383613bbd565b505050565b600d60009054906101000a900473ffffffffffffffffffffffffffffffffffffffff1681565b80611d3233826136d0565b1515611d3d57600080fd5b611d5984848460206040519081016040528060008152506127d1565b50505050565b60008060008084815260200190815260200160002060009054906101000a900473ffffffffffffffffffffffffffffffffffffffff169050600073ffffffffffffffffffffffffffffffffffffffff168173ffffffffffffffffffffffffffffffffffffffff161415915050919050565b6000611dda61197b565b82101515611de757600080fd5b600882815481101515611df657fe5b90600052602060002001549050919050565b600080611e1483611744565b51119050919050565b60008060008084815260200190815260200160002060009054906101000a900473ffffffffffffffffffffffffffffffffffffffff169050600073ffffffffffffffffffffffffffffffffffffffff168173ffffffffffffffffffffffffffffffffffffffff1614151515611e9157600080fd5b80915050919050565b60003273ffffffffffffffffffffffffffffffffffffffff16611ebc84611e1d565b73ffffffffffffffffffffffffffffffffffffffff16141515611f93576040517f08c379a00000000000000000000000000000000000000000000000000000000081526004018080602001828103825260488152602001807f53656e646572206973206e6f7420746865206f776e6572206f6620617274696681526020017f616374205b204261736541727469666163742e636f6e6669677572654368696c81526020017f6472656e2829205d00000000000000000000000000000000000000000000000081525060600191505060405180910390fd5b611f9c83612810565b5b8151811015611fd457611fc7838383815181101515611fb857fe5b90602001906020020151613deb565b8080600101915050611f9d565b611fdd83613fab565b50505050565b60008073ffffffffffffffffffffffffffffffffffffffff168273ffffffffffffffffffffffffffffffffffffffff161415151561202057600080fd5b600260008373ffffffffffffffffffffffffffffffffffffffff1673ffffffffffffffffffffffffffffffffffffffff168152602001908152602001600020549050919050565b6060806060600c6000858152602001908152602001600020600001600c6000868152602001908152602001600020600301600c6000878152602001908152602001600020600101828054600181600116156101000203166002900480601f0160208091040260200160405190810160405280929190818152602001828054600181600116156101000203166002900480156121435780601f1061211857610100808354040283529160200191612143565b820191906000526020600020905b81548152906001019060200180831161212657829003601f168201915b505050505092508180548060200260200160405190810160405280929190818152602001828054801561219557602002820191906000526020600020905b815481526020019060010190808311612181575b50505050509150808054806020026020016040519081016040528092919081815260200182805480156121e757602002820191906000526020600020905b8154815260200190600101908083116121d3575b505050505090509250925092509193909250565b600080600083905060648181151561220f57fe5b06915060648181151561221e57fe5b049050600a8181151561222d57fe5b06925050915091565b600b60009054906101000a900473ffffffffffffffffffffffffffffffffffffffff1681565b60008061226884612e35565b9050612290606461228283866140b890919063ffffffff16565b61417890919063ffffffff16565b915082821415156122e4576122a48461422b565b7f7d0941d6b095b74cfc1d8a196ff517ed8b55e42dd9dc3bfa5891a8f431cd34d18483604051808381526020018281526020019250505060405180910390a15b5092915050565b6000600c6000838152602001908152602001600020600301600281548110151561231157fe5b90600052602060002001549050919050565b606060058054600181600116156101000203166002900480601f0160208091040260200160405190810160405280929190818152602001828054600181600116156101000203166002900480156123bb5780601f10612390576101008083540402835291602001916123bb565b820191906000526020600020905b81548152906001019060200180831161239e57829003601f168201915b5050505050905090565b600080600080600080873273ffffffffffffffffffffffffffffffffffffffff166123ef82611e1d565b73ffffffffffffffffffffffffffffffffffffffff161415156124c6576040517f08c379a00000000000000000000000000000000000000000000000000000000081526004018080602001828103825260488152602001807f53656e646572206973206e6f7420746865206f776e6572206f6620746f6b656e81526020017f205b205669727475616c4d696e696e67426f6172642e6f6e6c79546f6b656e4f81526020017f776e65722829205d00000000000000000000000000000000000000000000000081525060600191505060405180910390fd5b6124f7887d04000000000000000000000000000000000000000000000000000000000061417890919063ffffffff16565b955061250289612f36565b945061251a86624000006140b890919063ffffffff16565b9350612531856102586140b890919063ffffffff16565b92508383111561259857600e5496507f9b853d71afabc077f0955001e4b574bb4323add8ae415946ca581d28703c5eeb89898960405180848152602001838152602001828152602001935050505060405180910390a16125908961422b565b86965061263a565b6125ab838561443290919063ffffffff16565b9150600f548210156125e3576125cc82600f5461417890919063ffffffff16565b9650600e548711156125de57600e5496505b6125e9565b600e5496505b7f9b853d71afabc077f0955001e4b574bb4323add8ae415946ca581d28703c5eeb89898960405180848152602001838152602001828152602001935050505060405180910390a16126398961422b565b5b50505050505092915050565b3373ffffffffffffffffffffffffffffffffffffffff168273ffffffffffffffffffffffffffffffffffffffff161415151561268157600080fd5b80600360003373ffffffffffffffffffffffffffffffffffffffff1673ffffffffffffffffffffffffffffffffffffffff16815260200190815260200160002060008473ffffffffffffffffffffffffffffffffffffffff1673ffffffffffffffffffffffffffffffffffffffff16815260200190815260200160002060006101000a81548160ff0219169083151502179055508173ffffffffffffffffffffffffffffffffffffffff163373ffffffffffffffffffffffffffffffffffffffff167f17307eab39ab6107e8899845ad3d59bd9653f200f220920489ca2b5937696c3183604051808215151515815260200191505060405180910390a35050565b61278b81612810565b61279582826144dd565b5050565b6000600c600083815260200190815260200160002060030160018154811015156127bf57fe5b90600052602060002001549050919050565b816127dc33826136d0565b15156127e757600080fd5b6127f2858585611988565b6127fe858585856144ec565b151561280957600080fd5b5050505050565b6000803273ffffffffffffffffffffffffffffffffffffffff1661283384611e1d565b73ffffffffffffffffffffffffffffffffffffffff1614151561290a576040517f08c379a00000000000000000000000000000000000000000000000000000000081526004018080602001828103825260488152602001807f53656e646572206973206e6f7420746865206f776e6572206f6620617274696681526020017f616374205b204261736541727469666163742e72656d6f7665416c6c4368696c81526020017f6472656e2829205d00000000000000000000000000000000000000000000000081525060600191505060405180910390fd5b6000600c60008581526020019081526020016000206001018054905011151561293257612add565b600091505b600c600084815260200190815260200160002060010180549050821015612a7d57600c60008481526020019081526020016000206001018281548110151561297b57fe5b90600052602060002001549050600d60009054906101000a900473ffffffffffffffffffffffffffffffffffffffff1673ffffffffffffffffffffffffffffffffffffffff1663986b7d8a826040518263ffffffff167c010000000000000000000000000000000000000000000000000000000002815260040180828152602001915050600060405180830381600087803b158015612a1957600080fd5b505af1158015612a2d573d6000803e3d6000fd5b505050507f26d4f2af75577a829b5609e9527f1e4baca1e8e27f0f9db66fc8f9db34f8cf458382604051808381526020018281526020019250505060405180910390a18180600101925050612937565b6000600c600085815260200190815260200160002060010181612aa091906151fe565b50600c6000848152602001908152602001600020600201600c6000858152602001908152602001600020600301908054612adb92919061522a565b505b505050565b60003273ffffffffffffffffffffffffffffffffffffffff16612b0484611e1d565b73ffffffffffffffffffffffffffffffffffffffff16141515612bdb576040517f08c379a000000000000000000000000000000000000000000000000000000000815260040180806020018281038252604a8152602001807f53656e646572206973206e6f7420746865206f776e6572206f6620617274696681526020017f616374205b204261736541727469666163742e72656d6f76654368696c64417281526020017f7469666163742829205d0000000000000000000000000000000000000000000081525060600191505060405180910390fd5b600c60008481526020019081526020016000206001018054905082101515612c0257612e30565b600d60009054906101000a900473ffffffffffffffffffffffffffffffffffffffff1673ffffffffffffffffffffffffffffffffffffffff1663986b7d8a600c600086815260200190815260200160002060010184815481101515612c6357fe5b90600052602060002001546040518263ffffffff167c010000000000000000000000000000000000000000000000000000000002815260040180828152602001915050600060405180830381600087803b158015612cc057600080fd5b505af1158015612cd4573d6000803e3d6000fd5b505050508190505b6001600c60008581526020019081526020016000206001018054905003811015612d6f57600c600084815260200190815260200160002060010160018201815481101515612d2657fe5b9060005260206000200154600c600085815260200190815260200160002060010182815481101515612d5457fe5b90600052602060002001819055508080600101915050612cdc565b600c60008481526020019081526020016000206001016001600c60008681526020019081526020016000206001018054905003815481101515612dae57fe5b9060005260206000200160009055600c6000848152602001908152602001600020600101805480919060019003612de591906151fe565b50612def83613fab565b507f26d4f2af75577a829b5609e9527f1e4baca1e8e27f0f9db66fc8f9db34f8cf458383604051808381526020018281526020019250505060405180910390a15b505050565b6000600c60008381526020019081526020016000206003016005815481101515612e5b57fe5b90600052602060002001549050919050565b6060612e7882611d5f565b1515612e8357600080fd5b600a60008381526020019081526020016000208054600181600116156101000203166002900480601f016020809104026020016040519081016040528092919081815260200182805460018160011615610100020316600290048015612f2a5780601f10612eff57610100808354040283529160200191612f2a565b820191906000526020600020905b815481529060010190602001808311612f0d57829003601f168201915b50505050509050919050565b6000600c60008381526020019081526020016000206003016004815481101515612f5c57fe5b90600052602060002001549050919050565b6000600c60008381526020019081526020016000206003016000815481101515612f9457fe5b90600052602060002001549050919050565b6060600080600c600086815260200190815260200160002060020180548060200260200160405190810160405280929190818152602001828054801561300b57602002820191906000526020600020905b815481526020019060010190808311612ff7575b5050505050925083519150600090505b8181101561305357613044848281518110151561303457fe5b90602001906020020151846146da565b9250808060010191505061301b565b505092915050565b60008060008390506127108181151561307057fe5b0691506127108181151561308057fe5b04905060648181151561308f57fe5b06925050915091565b6000600c600083815260200190815260200160002060030160038154811015156130be57fe5b90600052602060002001549050919050565b6000600360008473ffffffffffffffffffffffffffffffffffffffff1673ffffffffffffffffffffffffffffffffffffffff16815260200190815260200160002060008373ffffffffffffffffffffffffffffffffffffffff1673ffffffffffffffffffffffffffffffffffffffff16815260200190815260200160002060009054906101000a900460ff16905092915050565b6060806060600c6000858152602001908152602001600020600001600c6000868152602001908152602001600020600201600c6000878152602001908152602001600020600101828054600181600116156101000203166002900480601f0160208091040260200160405190810160405280929190818152602001828054600181600116156101000203166002900480156132405780601f1061321557610100808354040283529160200191613240565b820191906000526020600020905b81548152906001019060200180831161322357829003601f168201915b505050505092508180548060200260200160405190810160405280929190818152602001828054801561329257602002820191906000526020600020905b81548152602001906001019080831161327e575b50505050509150808054806020026020016040519081016040528092919081815260200182805480156132e457602002820191906000526020600020905b8154815260200190600101908083116132d0575b505050505090509250925092509193909250565b600b60009054906101000a900473ffffffffffffffffffffffffffffffffffffffff1673ffffffffffffffffffffffffffffffffffffffff163373ffffffffffffffffffffffffffffffffffffffff161415156133e3576040517f08c379a00000000000000000000000000000000000000000000000000000000081526004018080602001828103825260328152602001807f53656e646572206973206e6f7420636f6e7472616374206f776e6572205b204f81526020017f776e65642e6f6e6c794f776e65722829205d000000000000000000000000000081525060400191505060405180910390fd5b80600b60006101000a81548173ffffffffffffffffffffffffffffffffffffffff021916908373ffffffffffffffffffffffffffffffffffffffff16021790555050565b600080600b60009054906101000a900473ffffffffffffffffffffffffffffffffffffffff1673ffffffffffffffffffffffffffffffffffffffff163373ffffffffffffffffffffffffffffffffffffffff16141515613515576040517f08c379a00000000000000000000000000000000000000000000000000000000081526004018080602001828103825260328152602001807f53656e646572206973206e6f7420636f6e7472616374206f776e6572205b204f81526020017f776e65642e6f6e6c794f776e65722829205d000000000000000000000000000081525060400191505060405180910390fd5b613530600161352261197b565b61489390919063ffffffff16565b9150600c600083815260200190815260200160002090508481600001908051906020019061355f92919061527c565b50838160020190805190602001906135789291906152fc565b50838160030190805190602001906135919291906152fc565b5061359c868361493e565b6135a68284614995565b7fece952c5890c3df112a6316d0093513b3dc2f9851655290a4919839490a2a07e86838787604051808573ffffffffffffffffffffffffffffffffffffffff1673ffffffffffffffffffffffffffffffffffffffff1681526020018481526020018060200180602001838103835285818151815260200191508051906020019080838360005b8381101561364757808201518184015260208101905061362c565b50505050905090810190601f1680156136745780820380516001836020036101000a031916815260200191505b50838103825284818151815260200191508051906020019060200280838360005b838110156136b0578082015181840152602081019050613695565b50505050905001965050505050505060405180910390a150949350505050565b6000806136dc83611e1d565b90508073ffffffffffffffffffffffffffffffffffffffff168473ffffffffffffffffffffffffffffffffffffffff16148061374b57508373ffffffffffffffffffffffffffffffffffffffff1661373384611541565b73ffffffffffffffffffffffffffffffffffffffff16145b8061375c575061375b81856130d0565b5b91505092915050565b8173ffffffffffffffffffffffffffffffffffffffff1661378582611e1d565b73ffffffffffffffffffffffffffffffffffffffff161415156137a757600080fd5b600073ffffffffffffffffffffffffffffffffffffffff166001600083815260200190815260200160002060009054906101000a900473ffffffffffffffffffffffffffffffffffffffff1673ffffffffffffffffffffffffffffffffffffffff161415156138ca5760006001600083815260200190815260200160002060006101000a81548173ffffffffffffffffffffffffffffffffffffffff021916908373ffffffffffffffffffffffffffffffffffffffff160217905550600073ffffffffffffffffffffffffffffffffffffffff168273ffffffffffffffffffffffffffffffffffffffff167f8c5be1e5ebec7d5bd14f71427d1e84f3dd0314c0f7b2291e5b200ac8c7c3b925836040518082815260200191505060405180910390a35b5050565b60008060006138dd85856149d5565b600760008581526020019081526020016000205492506139496001600660008873ffffffffffffffffffffffffffffffffffffffff1673ffffffffffffffffffffffffffffffffffffffff1681526020019081526020016000208054905061443290919063ffffffff16565b9150600660008673ffffffffffffffffffffffffffffffffffffffff1673ffffffffffffffffffffffffffffffffffffffff1681526020019081526020016000208281548110151561399757fe5b9060005260206000200154905080600660008773ffffffffffffffffffffffffffffffffffffffff1673ffffffffffffffffffffffffffffffffffffffff168152602001908152602001600020848154811015156139f157fe5b90600052602060002001819055506000600660008773ffffffffffffffffffffffffffffffffffffffff1673ffffffffffffffffffffffffffffffffffffffff16815260200190815260200160002083815481101515613a4d57fe5b9060005260206000200181905550600660008673ffffffffffffffffffffffffffffffffffffffff1673ffffffffffffffffffffffffffffffffffffffff168152602001908152602001600020805480919060019003613aad91906151fe565b50600060076000868152602001908152602001600020819055508260076000838152602001908152602001600020819055505050505050565b6000613af28383614b03565b600660008473ffffffffffffffffffffffffffffffffffffffff1673ffffffffffffffffffffffffffffffffffffffff168152602001908152602001600020805490509050600660008473ffffffffffffffffffffffffffffffffffffffff1673ffffffffffffffffffffffffffffffffffffffff168152602001908152602001600020829080600181540180825580915050906001820390600052602060002001600090919290919091505550806007600084815260200190815260200160002081905550505050565b60003273ffffffffffffffffffffffffffffffffffffffff16613bdf84611e1d565b73ffffffffffffffffffffffffffffffffffffffff16141515613cb6576040517f08c379a00000000000000000000000000000000000000000000000000000000081526004018080602001828103825260478152602001807f53656e646572206973206e6f7420746865206f776e6572206f6620617274696681526020017f616374205b204261736541727469666163742e6164644368696c64417274696681526020017f6163742829205d0000000000000000000000000000000000000000000000000081525060600191505060405180910390fd5b600d60009054906101000a900473ffffffffffffffffffffffffffffffffffffffff16905060008173ffffffffffffffffffffffffffffffffffffffff1663cddc9944846040518263ffffffff167c010000000000000000000000000000000000000000000000000000000002815260040180828152602001915050602060405180830381600087803b158015613d4c57600080fd5b505af1158015613d60573d6000803e3d6000fd5b505050506040513d6020811015613d7657600080fd5b8101908080519060200190929190505050141515613d9357600080fd5b613d9d8383613deb565b613da683613fab565b507fbe5299213cdfd3ff5dfa97a362ebf98062034017f0e6f38c5bdaf6883452fddd8383604051808381526020018281526020019250505060405180910390a1505050565b613df58282614c5b565b151515613eb6576040517f08c379a00000000000000000000000000000000000000000000000000000000081526004018080602001828103825260448152602001807f53656e646572206973206e6f7420746865206f776e6572206f6620617274696681526020017f616374205b204261736541727469666163742e5f736166654164644368696c6481526020017f2829205d0000000000000000000000000000000000000000000000000000000081525060600191505060405180910390fd5b600c6000838152602001908152602001600020600101819080600181540180825580915050906001820390600052602060002001600090919290919091505550600d60009054906101000a900473ffffffffffffffffffffffffffffffffffffffff1673ffffffffffffffffffffffffffffffffffffffff1663c55e0ec582846040518363ffffffff167c01000000000000000000000000000000000000000000000000000000000281526004018083815260200182815260200192505050600060405180830381600087803b158015613f8f57600080fd5b505af1158015613fa3573d6000803e3d6000fd5b505050505050565b6060600080600c600085815260200190815260200160002060020180548060200260200160405190810160405280929190818152602001828054801561401057602002820191906000526020600020905b815481526020019060010190808311613ffc575b50505050509250600c6000858152602001908152602001600020600101805490509150600090505b8181101561408657614077600c60008681526020019081526020016000206001018281548110151561406657fe5b9060005260206000200154846146da565b92508080600101915050614038565b82600c600086815260200190815260200160002060030190805190602001906140b09291906152fc565b505050919050565b6000818302905060008314806140d857508183828115156140d557fe5b04145b1515614172576040517f08c379a000000000000000000000000000000000000000000000000000000000815260040180806020018281038252603b8152602001807f496e76616c696420726571756972656d656e742061203d3d2030207c7c20632081526020017f2f2061203d3d2062205b20536166654d6174682e6d756c2829205d000000000081525060400191505060405180910390fd5b92915050565b60008082111515614217576040517f08c379a000000000000000000000000000000000000000000000000000000000815260040180806020018281038252602c8152602001807f496e76616c696420726571756972656d656e742062203e2030205b205361666581526020017f4d6174682e6469762829205d000000000000000000000000000000000000000081525060400191505060405180910390fd5b818381151561422257fe5b04905092915050565b600060606000806000806142776001600c60008a8152602001908152602001600020600301600081548110151561425e57fe5b906000526020600020015461489390919063ffffffff16565b5061428187611744565b519550856040519080825280602002602001820160405280156142b35781602001602082028038833980820191505090505b50945060009350600092505b858310156143ee57600d60009054906101000a900473ffffffffffffffffffffffffffffffffffffffff1673ffffffffffffffffffffffffffffffffffffffff166374cd643161430e89611744565b8581518110151561431b57fe5b906020019060200201516040518263ffffffff167c010000000000000000000000000000000000000000000000000000000002815260040180828152602001915050602060405180830381600087803b15801561437757600080fd5b505af115801561438b573d6000803e3d6000fd5b505050506040513d60208110156143a157600080fd5b8101908080519060200190929190505050915060008214156143e1578285858060010196508151811015156143d257fe5b90602001906020020181815250505b82806001019350506142bf565b600090505b838110156144295761441c87868381518110151561440d57fe5b90602001906020020151612ae2565b80806001019150506143f3565b50505050505050565b60008282111515156144d2576040517f08c379a000000000000000000000000000000000000000000000000000000000815260040180806020018281038252602d8152602001807f496e76616c696420726571756972656d656e742062203c3d2061205b2053616681526020017f654d6174682e7375622829205d0000000000000000000000000000000000000081525060400191505060405180910390fd5b818303905092915050565b6144e8328383611988565b5050565b60008061450e8573ffffffffffffffffffffffffffffffffffffffff16614dd2565b151561451d57600191506146d1565b8473ffffffffffffffffffffffffffffffffffffffff1663f0b9e5ba8786866040518463ffffffff167c0100000000000000000000000000000000000000000000000000000000028152600401808473ffffffffffffffffffffffffffffffffffffffff1673ffffffffffffffffffffffffffffffffffffffff16815260200183815260200180602001828103825283818151815260200191508051906020019080838360005b838110156145df5780820151818401526020810190506145c4565b50505050905090810190601f16801561460c5780820380516001836020036101000a031916815260200191505b50945050505050602060405180830381600087803b15801561462d57600080fd5b505af1158015614641573d6000803e3d6000fd5b505050506040513d602081101561465757600080fd5b8101908080519060200190929190505050905063f0b9e5ba7c0100000000000000000000000000000000000000000000000000000000027bffffffffffffffffffffffffffffffffffffffffffffffffffffffff1916817bffffffffffffffffffffffffffffffffffffffffffffffffffffffff19161491505b50949350505050565b6060806000806000600d60009054906101000a900473ffffffffffffffffffffffffffffffffffffffff1673ffffffffffffffffffffffffffffffffffffffff16635345c676886040518263ffffffff167c010000000000000000000000000000000000000000000000000000000002815260040180828152602001915050600060405180830381600087803b15801561477357600080fd5b505af1158015614787573d6000803e3d6000fd5b505050506040513d6000823e3d601f19601f8201168201806040525060208110156147b157600080fd5b8101908080516401000000008111156147c957600080fd5b828101905060208101848111156147df57600080fd5b81518560208202830111640100000000821117156147fc57600080fd5b50509291905050509350600092505b835183101561488657614834848481518110151561482557fe5b9060200190602002015161305b565b809250819350505061485d868381518110151561484d57fe5b9060200190602002015182614de5565b868381518110151561486b57fe5b9060200190602002018181525050828060010193505061480b565b8594505050505092915050565b60008183019050828110151515614938576040517f08c379a000000000000000000000000000000000000000000000000000000000815260040180806020018281038252602d8152602001807f496e76616c696420726571756972656d656e742063203e3d2061205b2053616681526020017f654d6174682e6164642829205d0000000000000000000000000000000000000081525060400191505060405180910390fd5b92915050565b6149488282615111565b600880549050600960008381526020019081526020016000208190555060088190806001815401808255809150509060018203906000526020600020016000909192909190915055505050565b61499e82611d5f565b15156149a957600080fd5b80600a600084815260200190815260200160002090805190602001906149d092919061527c565b505050565b8173ffffffffffffffffffffffffffffffffffffffff166149f582611e1d565b73ffffffffffffffffffffffffffffffffffffffff16141515614a1757600080fd5b614a6a6001600260008573ffffffffffffffffffffffffffffffffffffffff1673ffffffffffffffffffffffffffffffffffffffff1681526020019081526020016000205461443290919063ffffffff16565b600260008473ffffffffffffffffffffffffffffffffffffffff1673ffffffffffffffffffffffffffffffffffffffff16815260200190815260200160002081905550600080600083815260200190815260200160002060006101000a81548173ffffffffffffffffffffffffffffffffffffffff021916908373ffffffffffffffffffffffffffffffffffffffff1602179055505050565b600073ffffffffffffffffffffffffffffffffffffffff1660008083815260200190815260200160002060009054906101000a900473ffffffffffffffffffffffffffffffffffffffff1673ffffffffffffffffffffffffffffffffffffffff16141515614b7057600080fd5b8160008083815260200190815260200160002060006101000a81548173ffffffffffffffffffffffffffffffffffffffff021916908373ffffffffffffffffffffffffffffffffffffffff160217905550614c146001600260008573ffffffffffffffffffffffffffffffffffffffff1673ffffffffffffffffffffffffffffffffffffffff1681526020019081526020016000205461489390919063ffffffff16565b600260008473ffffffffffffffffffffffffffffffffffffffff1673ffffffffffffffffffffffffffffffffffffffff168152602001908152602001600020819055505050565b6000803273ffffffffffffffffffffffffffffffffffffffff16614c7e85611e1d565b73ffffffffffffffffffffffffffffffffffffffff16141515614d55576040517f08c379a000000000000000000000000000000000000000000000000000000000815260040180806020018281038252604b8152602001807f53656e646572206973206e6f7420746865206f776e6572206f6620617274696681526020017f616374205b204261736541727469666163742e5f636865636b4475706c69636181526020017f74654368696c642829205d00000000000000000000000000000000000000000081525060600191505060405180910390fd5b600090505b600c600085815260200190815260200160002060010180549050811015614dc65782600c600086815260200190815260200160002060010182815481101515614d9f57fe5b90600052602060002001541415614db95760019150614dcb565b8080600101915050614d5a565b600091505b5092915050565b600080823b905060008111915050919050565b6000806000806000614df6866151c1565b80945081955050506001831415614e2157614e1a848861489390919063ffffffff16565b9450615107565b6002831415614e4457614e3d848861443290919063ffffffff16565b9450615106565b6003831415614e6757614e6084886140b890919063ffffffff16565b9450615105565b6004831415614e8a57614e83848861417890919063ffffffff16565b9450615104565b6005831415614ed257614ecb614ebc6064614eae878b6140b890919063ffffffff16565b61417890919063ffffffff16565b8861489390919063ffffffff16565b9450615103565b6006831415614f1a57614f13614f046064614ef6878b6140b890919063ffffffff16565b61417890919063ffffffff16565b8861443290919063ffffffff16565b9450615102565b6007831415614fee578387111515614fe6576040517f08c379a00000000000000000000000000000000000000000000000000000000081526004018080602001828103825260468152602001807f4f7020373a207461726765742069732067726561746572207468616e206d6f6481526020017f69666965722076616c7565205b204261736541727469666163742e6f7065726181526020017f74652829205d000000000000000000000000000000000000000000000000000081525060600191505060405180910390fd5b869450615101565b60088314156150c25783871015156150ba576040517f08c379a00000000000000000000000000000000000000000000000000000000081526004018080602001828103825260438152602001807f4f7020383a20746172676574206973206c657373207468616e206d6f6469666981526020017f65722076616c7565205b204261736541727469666163742e6f7065726174652881526020017f29205d000000000000000000000000000000000000000000000000000000000081525060600191505060405180910390fd5b869450615100565b60098314156150fb576150d4846121fb565b80925081935050506150f481600a0a83028861489390919063ffffffff16565b94506150ff565b8694505b5b5b5b5b5b5b5b5b5050505092915050565b600073ffffffffffffffffffffffffffffffffffffffff168273ffffffffffffffffffffffffffffffffffffffff161415151561514d57600080fd5b6151578282613ae6565b8173ffffffffffffffffffffffffffffffffffffffff16600073ffffffffffffffffffffffffffffffffffffffff167fddf252ad1be2c89b69c2b068fc378daa952ba7f163c4a11628f55a4df523b3ef836040518082815260200191505060405180910390a35050565b60008060008390506103e8818115156151d657fe5b0692506103e8818115156151e657fe5b049050600a818115156151f557fe5b06915050915091565b815481835581811115615225578183600052602060002091820191016152249190615349565b5b505050565b82805482825590600052602060002090810192821561526b5760005260206000209182015b8281111561526a57825482559160010191906001019061524f565b5b5090506152789190615349565b5090565b828054600181600116156101000203166002900490600052602060002090601f016020900481019282601f106152bd57805160ff19168380011785556152eb565b828001600101855582156152eb579182015b828111156152ea5782518255916020019190600101906152cf565b5b5090506152f89190615349565b5090565b828054828255906000526020600020908101928215615338579160200282015b8281111561533757825182559160200191906001019061531c565b5b5090506153459190615349565b5090565b61536b91905b8082111561536757600081600090555060010161534f565b5090565b905600a165627a7a72305820277a92c1ce76dc46d3f68d37fa3fdf78ddee6065a0e06c575b1a10b8d9c5bdc80029",
  "source": "pragma solidity ^0.4.24;\n\nimport \"./IMithrilBooster.sol\";\nimport \"./BaseArtifact.sol\";\n\n/*\n * The VirtualMiningBoard contract represents a Virtual Mining Board Device use to affect minting statistics\n * for Mineables tokens. It encasulates the following minimum statistics:\n *\n *      [0]: experience ( total alltime nubmer of successful mintings )\n *\t\t[1]: lifeDecrement ( defaulted to 1, this can optionally be increased in 'virtual overclocking' scenarios)\n *\t\t[2]: executionCost (additional cost in Mithril)\n *      [3]: sockets ( # of slots for adding vGPUs or other components )\n *      [4]: vHash ( the combined current Virtual Hashing power, default to 0 )\n *      [5]: accuracy ( total reward as a percent default to 100 )\n *      [6]: level\n *\n **/\ncontract VirtualMiningBoard is BaseArtifact, IMithrilBooster {\n\tusing SafeMath for uint;\n\n\tuint MAXIMUM_TARGET = 2**234;\n\n    uint CEILING = 2**256-1;\n\n    modifier onlyTokenOwner(uint _tokenId){\n      require(ownerOf(_tokenId) == tx.origin, \"Sender is not the owner of token [ VirtualMiningBoard.onlyTokenOwner() ]\");\n      _;\n    }\n \n    /**\n     * Constructor function\n     *\n     * Initializes contract with a child artifact address, a symbol, and a name\n     *\n     * @param _childArtifactAddress the address of the Mineables ERC721 child artifact\n     * @param _symbol the symbol of this token contract\n     * @param _name the name of this token contract\n     */\n    constructor(address _childArtifactAddress, string _symbol, string _name) \n    \tBaseArtifact(_childArtifactAddress, _symbol, _name)\n    \tpublic { }\n\n    /**\n     * mint function\n     *\n     * Creates a Virtual Mining Board artifact, assigning an owner, name and initial statistics,\n     * and returning a unique artifact identifier. Only the contract owner can mint new artifacts.\n     *\n     * @param _owner the target owner of the artifact\n     * @param _name the name assigned to the target artifact\n     * @param _statistics the initial statistics of the artifact\n     */\n    function mint(address _owner, string _name, uint[] _statistics, string _uriMetadata) \n        public onlyOwner returns (uint _boosterId) \n    {\n        // minimum base statistics\n        require(_statistics.length >= 7, \"Must be a minimum of 7 statistics to mint a new base artifact [ VirtualMiningBoard.mint() ]\");\n        _boosterId = super.mint(_owner, _name, _statistics, _uriMetadata);\n    }\n\n    /**\n     * addChildArtifact function\n     *\n     * Public protected function that allows the owner of a base artifact to add a single\n     * child artifact to it's existing configuration, validating that there are\n     * enough available sockets.\n     *\n     * @param _boosterId the base artifact id\n     * @param _artifactId the child artifact id\n     */\n    function addChildArtifact(uint _boosterId, uint _artifactId) \n        public \n        onlyTokenOwner(_boosterId) {\n        // ensure there are enough slots\n        require(boosters[_boosterId].childArtifacts.length < sockets(_boosterId), \"Not enough socket space to add child artifact [ VirtualMiningBoard.addChildArtifact() ]\" );\n        super.addChildArtifact(_boosterId, _artifactId);\n    }\n\n    /**\n     * adjustDifficulty function\n     *\n     * Public protected function that allows the owner of a base artifact to adjust the difficulty\n     * of a mining target based upon calculating the adjusted virtual hashrate of the artifact with\n     * all of it's socketed items.\n     *\n     * @param _tokenId the base artifact id\n     * @param _miningTarget the mining difficulty target\n     */\n    function adjustDifficulty(uint _tokenId, uint _miningTarget) \n    \tpublic \n    \tonlyTokenOwner(_tokenId)\n\t\treturns (uint adjustedMiningTarget) {\n\n        uint difficulty = uint(2**234).div(_miningTarget);\n    \tuint virtualHashrate = vHash(_tokenId);\n        uint alpha = uint(2**22).mul(difficulty);\n        uint beta = uint(600).mul(virtualHashrate);\n\n        if(beta > alpha) {\n            adjustedMiningTarget = MAXIMUM_TARGET;\n            emit AdjustDifficulty(_tokenId, _miningTarget, adjustedMiningTarget);\n            cycle(_tokenId);\n            return adjustedMiningTarget;\n        }\n        \n        uint denominator = alpha.sub(beta);\n        if(denominator < CEILING) {\n            adjustedMiningTarget = CEILING.div( denominator );\n            if(adjustedMiningTarget > MAXIMUM_TARGET){\n                adjustedMiningTarget = MAXIMUM_TARGET;\n            }\n        } else {\n            adjustedMiningTarget = MAXIMUM_TARGET;\n        }\n\n        emit AdjustDifficulty(_tokenId, _miningTarget, adjustedMiningTarget);\n        cycle(_tokenId);\n        \n    }\n\n    /**\n     * adjustDifficulty function\n     *\n     * Public protected function that allows the owner of a base artifact to adjust the block reward\n     * of a minable based upon calculating the adjusted virtual accuracy of the artifact with\n     * all of it's socketed items.\n     *\n     * @param _tokenId the base artifact id\n     * @param _miningReward the mining reward\n     */\n    function adjustReward(uint _tokenId, uint _miningReward) \n        public \n        // TODO RESTORE ME\n        //onlyTokenOwner(_tokenId)\n        returns (uint adjustedReward) {\n\n        uint acc = accuracy(_tokenId);\n        adjustedReward = _miningReward.mul(acc).div(100);\n        // only cycle if the mining reward was updated\n        if(adjustedReward != _miningReward) {\n            cycle(_tokenId);\n            emit AdjustReward(_tokenId, adjustedReward);\n        }\n\n    }\n\n    /**\n     * cycle function\n     *\n     * Internal function that cycles this artifact upon a successful mint transaction.\n     *\n     * @param _id the base artifact id\n     */\n    function cycle(uint _id) internal {\n\t\t// +1 to exp\n\t\tboosters[_id].mergedStatistics[0].add(1);\n\n        uint len = childArtifacts(_id).length;\n        uint [] memory toDelete = new uint[](len);\n        uint count = 0;\n        for (uint i = 0; i < len; i++) {\n            uint remainingLife = ChildArtifact(childArtifactAddress).decrementLife( childArtifacts(_id)[i] );\n            if(remainingLife == 0) {\n                toDelete[count++] = i;\n            }\n        }\n\n        for (uint j = 0; j < count; j++) {\n            removeChildArtifact(_id, toDelete[j]);\n        }\n\n    }\n\n    /**\n     * experience function\n     *\n     * Public view function that returns a target artifact's experience\n     *\n     * @param _id the base artifact id\n     */\n \tfunction experience(uint _id) public view returns (uint) {\n    \treturn boosters[_id].mergedStatistics[0];\n    }\n\n    /**\n     * lifeDecrementer function\n     *\n     * Public view function that returns a target artifact's life decrementer\n     *\n     * @param _id the base artifact id\n     */\n    function lifeDecrementer(uint _id) public view returns (uint) {\n    \treturn boosters[_id].mergedStatistics[1];\n    }\n\n    /**\n     * executionCost function\n     *\n     * Public view function that returns a target artifact's execution cost\n     *\n     * @param _id the base artifact id\n     */\n    function executionCost(uint _id) public view returns (uint) {\n    \treturn boosters[_id].mergedStatistics[2];\n    }\n\n    /**\n     * sockets function\n     *\n     * Public view function that returns a target artifact's socket count\n     *\n     * @param _id the base artifact id\n     */\n    function sockets(uint _id) public view returns (uint) {\n    \treturn boosters[_id].mergedStatistics[3];\n    }\n\n    /**\n     * vHash function\n     *\n     * Public view function that returns a target artifact's Virtual Hash Rate\n     *\n     * @param _id the base artifact id\n     */\n    function vHash(uint _id) public view returns (uint) {\n    \treturn boosters[_id].mergedStatistics[4];\n    }\n\n    /**\n     * accuracy function\n     *\n     * Public view function that returns a target artifact's accuracy\n     *\n     * @param _id the base artifact id\n     */\n    function accuracy(uint _id) public view returns (uint) {\n    \treturn boosters[_id].mergedStatistics[5];\n    }\n\n    /**\n     * level function\n     *\n     * Public view function that returns a target artifact's level\n     *\n     * @param _id the base artifact id\n     */\n    function level(uint _id) public view returns (uint) {\n        return boosters[_id].mergedStatistics[6];\n    }\n\n}",
  "sourcePath": "/Users/logelj1/Documents/playground/0xMithril/mithril-repo/0xmithriltoken/contracts/VirtualMiningBoard.sol",
  "compiler": {
    "name": "solc",
    "version": "0.4.24+commit.e67f0147.Emscripten.clang"
  },
  "schemaVersion": "2.0.1",
  "updatedAt": "2018-10-07T16:59:21.612Z"
}